S01B00004D65646963616C5F526F626F745F536C6176652E737265639B
S11300000C942A000C943F000C943F000C943F0085
S11300100C943F000C943F000C943F000C943F0060
S11300200C943F000C943F000C943F000C943F0050
S11300300C943F000C943F000C943F000C943F0040
S11300400C943F000C943F000C943F000C943F0030
S11300500C943F0011241FBECFE5D8E0DEBFCDBF16
S113006010E0A0E6B0E0E8E1F3E002C005900D92F4
S1130070A036B107D9F70E9467010C948A010C9449
S11300800000683008F06CC0813001F130F082303B
S1130090B1F1833009F44CC00895413059F42AB3C6
S11300A081E090E002C0880F991F6A95E2F7822BE5
S11300B08ABB08952AB381E090E002C0880F991F9B
S11300C06A95E2F7809582238ABB0895413059F4FA
S11300D027B381E090E002C0880F991F6A95E2F788
S11300E0822B87BB089527B381E090E002C0880F7C
S11300F0991F6A95E2F78095822387BB0895413062
S113010059F424B381E090E002C0880F991F6A95E6
S1130110E2F7822B84BB089524B381E090E002C00F
S1130120880F991F6A95E2F78095822384BB08950E
S1130130413059F421B381E090E002C0880F991F47
S11301406A95E2F7822B81BB089521B381E090E0A8
S113015002C0880F991F6A95E2F78095822381BBBC
S11301600895683008F06CC0813001F130F08230BD
S1130170B1F1833009F44CC00895413059F42BB3E4
S113018081E090E002C0880F991F6A95E2F7822B04
S11301908BBB08952BB381E090E002C0880F991FB8
S11301A06A95E2F7809582238BBB0895413059F418
S11301B028B381E090E002C0880F991F6A95E2F7A6
S11301C0822B88BB089528B381E090E002C0880F99
S11301D0991F6A95E2F78095822388BB0895413080
S11301E059F425B381E090E002C0880F991F6A9505
S11301F0E2F7822B85BB089525B381E090E002C02D
S1130200880F991F6A95E2F78095822385BB08952C
S1130210413059F422B381E090E002C0880F991F65
S11302206A95E2F7822B82BB089522B381E090E0C5
S113023002C0880F991F6A95E2F78095822382BBDA
S11302400895683098F5813089F028F08230C9F03B
S1130250833011F108952BB381E090E002C0880F40
S1130260991F6A95E2F782278BBB089528B381E032
S113027090E002C0880F991F6A95E2F7822788BB35
S1130280089525B381E090E002C0880F991F6A9514
S1130290E2F7822785BB089522B381E090E002C093
S11302A0880F991F6A95E2F7822782BB089541E07F
S11302B061E082E00E94410040E061E082E00E944F
S11302C0B100089561E082E00E94210108950E9436
S11302D072010E9457010E9486018335E1F70E9452
S11302E06201F9CF1BB88AB180618AB98AB188608A
S11302F08AB980B5806880BD80B5846080BD80B5D2
S1130300826080BD10BC83E389B908955F9BFECFF2
S10B03108CB10895F894FFCFAD
S9030000FC
