:100000000C942A000C9447000C9447000C94470071
:100010000C9447000C9447000C9447000C94470044
:100020000C9447000C9447000C9447000C94470034
:100030000C9447000C9447000C9447000C94470024
:100040000C9447000C9447000C9447000C94470014
:100050000C94470011241FBECFE5D8E0DEBFCDBF12
:1000600011E0A0E6B0E0E8E5F9E002C005900D92ED
:10007000AA34B107D9F721E0AAE4B1E001C01D928A
:10008000AD34B207E1F70E944B030C94AA040C9420
:100090000000683008F06CC0813001F130F082302F
:1000A000B1F1833009F44CC00895413059F42AB3BA
:1000B00081E090E002C0880F991F6A95E2F7822BD9
:1000C0008ABB08952AB381E090E002C0880F991F8F
:1000D0006A95E2F7809582238ABB0895413059F4EE
:1000E00027B381E090E002C0880F991F6A95E2F77C
:1000F000822B87BB089527B381E090E002C0880F70
:10010000991F6A95E2F78095822387BB0895413055
:1001100059F424B381E090E002C0880F991F6A95DA
:10012000E2F7822B84BB089524B381E090E002C003
:10013000880F991F6A95E2F78095822384BB089502
:10014000413059F421B381E090E002C0880F991F3B
:100150006A95E2F7822B81BB089521B381E090E09C
:1001600002C0880F991F6A95E2F78095822381BBB0
:100170000895683008F06CC0813001F130F08230B1
:10018000B1F1833009F44CC00895413059F42BB3D8
:1001900081E090E002C0880F991F6A95E2F7822BF8
:1001A0008BBB08952BB381E090E002C0880F991FAC
:1001B0006A95E2F7809582238BBB0895413059F40C
:1001C00028B381E090E002C0880F991F6A95E2F79A
:1001D000822B88BB089528B381E090E002C0880F8D
:1001E000991F6A95E2F78095822388BB0895413074
:1001F00059F425B381E090E002C0880F991F6A95F9
:10020000E2F7822B85BB089525B381E090E002C020
:10021000880F991F6A95E2F78095822385BB089520
:10022000413059F422B381E090E002C0880F991F59
:100230006A95E2F7822B82BB089522B381E090E0B9
:1002400002C0880F991F6A95E2F78095822382BBCE
:100250000895683060F5813079F028F08230A9F097
:100260008330E1F026C089B390E002C09595879570
:100270006A95E2F78170089586B390E002C0959583
:1002800087956A95E2F78170089583B390E002C084
:10029000959587956A95E2F78170089580B390E00F
:1002A00002C0959587956A95E2F78170089580E080
:1002B000089580E00895813041F028F0823039F0CF
:1002C000833039F008956ABB089567BB089564BB15
:1002D000089561BB0895813041F028F0823039F0F3
:1002E000833039F008956BBB089568BB089565BBF2
:1002F000089562BB0895CF93C0E00BC041E06C2F1E
:1003000080E00E94490041E06C2F80E00E94B9002B
:10031000CF5FC43098F3C4E00BC040E06C2F80E0A6
:100320000E94490041E06C2F80E00E94B900CF5F3D
:10033000C83098F3CF910895FF920F931F93CF93F6
:10034000DF93CDB7DEB760970FB6F894DEBF0FBE70
:10035000CDBF80E1E0E6F0E0DE01119601900D9264
:100360008A95E1F7F12C4FC041E060E080E00E9407
:10037000B90041E061E080E00E94B90041E062E044
:1003800080E00E94B90041E063E080E00E94B90093
:1003900040E06F2D80E00E94B90010E031C004E021
:1003A000010F602F80E00E942901811128C087E899
:1003B00093E10197F1F700C00000602F80E00E94F8
:1003C000290181111CC0602F80E00E94290188232F
:1003D000D1F387E893E10197F1F700C00000EF2D1A
:1003E000F0E0EE0FFF1FEE0FFF1F81E090E08C0F9B
:1003F0009D1FE80FF91FE10FF11D808109C01F5FEC
:10040000143068F2F39493E09F1508F0ADCF80E0CC
:1004100060960FB6F894DEBF0FBECDBFDF91CF91CF
:100420001F910F91FF900895CF93C82F40E066E091
:1004300082E00E94B90040E065E082E00E94B900DD
:100440006C2F81E00E946B0141E067E082E00E9436
:10045000B90083EF91E00197F1F700C0000040E0A0
:1004600067E082E00E94B90087EA91E60197F1F720
:1004700000C00000CF910895CF93C82F41E066E0FF
:1004800082E00E94B90040E065E082E00E94B9008D
:100490006C2F81E00E946B0141E067E082E00E94E6
:1004A000B90083EF91E00197F1F700C0000040E050
:1004B00067E082E00E94B90087EA91E60197F1F7D0
:1004C00000C00000CF91089541E065E082E00E9405
:1004D000490041E066E082E00E94490041E067E0B7
:1004E00082E00E9449006FEF81E00E945B0183ED92
:1004F00090E30197F1F700C0000088E30E94140226
:1005000081EE94E00197F1F700C000008CE00E94BA
:10051000140281EE94E00197F1F700C0000081E041
:100520000E94140281EE94E00197F1F700C00000F0
:1005300086E00E94140281EE94E00197F1F700C07A
:1005400000000895CF93DF93EC0103C00E943C02AA
:10055000219688818111FACFDF91CF91089581E0B2
:100560000E94140283EF91E00197F1F700C00000B0
:100570000895813059F028F0823069F0833081F09D
:10058000089580E8860F0E941402089580EC860F7B
:100590000E941402089584E9860F0E9414020895AF
:1005A00084ED860F0E9414020895CF92DF92EF929D
:1005B000FF92CF93DF93CDB7DEB72C970FB6F894A9
:1005C000DEBF0FBECDBF6B017C01611571058105DA
:1005D000910521F480E30E943C0250C0992364F409
:1005E0008DE20E943C0266277727CB016C197D09BA
:1005F0008E099F09F12C14C0FDCF2AE030E040E0C5
:1006000050E00E948804E1E0F0E0EC0FFD1FEF0DE8
:10061000F11D605D6083622F732F842F952FF394FB
:10062000611571058105910541F780E018C0282FFB
:1006300030E0A1E0B0E0AC0FBD1FA20FB31F9C9152
:10064000EF2DF0E0E21BF30B319721E030E02C0FAF
:100650003D1FE20FF31F20812C9390838F5F9F2D0E
:100660009695891720F3E1E0F0E0EC0FFD1FEF0D08
:10067000F11D1082CE0101960E94A2022C960FB6A7
:10068000F894DEBF0FBECDBFDF91CF91FF90EF900A
:10069000DF90CF9008950E948A030E9491030E94E8
:1006A000B7030E94D4030E9411040E945104F5CFA5
:1006B000CF93DF93C0E0D0E00E949C0190ED980FB3
:1006C0009A3088F49E01220F331FCC0FDD1FCC0F10
:1006D000DD1FCC0FDD1FC20FD31FC80FD11DE09748
:1006E0000E943C02E9CF833479F460E081E00E940B
:1006F000B90280E790E00E94A20260E081E00E94DF
:10070000B902C0E0D0E0D8CF8D33B1F6CE01DF9191
:10071000CF9108950E9464020E947B010E94AF0263
:1007200008950E94AF0263E080E00E94B90285E86C
:1007300090E00E94A20262E081E00E94B90283E997
:1007400090E00E94A20265E082E00E94B90283EA82
:1007500090E00E94A2020E949C018D3339F087E84C
:1007600093E10197F1F700C00000F5CF08950E94D2
:10077000AF0260E080E00E94B9028BEA90E00E9444
:10078000A20260E081E00E94B9028AEB90E00E9440
:10079000A20260E082E00E94B9020E945803909396
:1007A0004C0180934B0108950E94AF0260E080E00D
:1007B0000E94B90282EC90E00E94A20260E081E017
:1007C0000E94B90282ED90E00E94A2026BE081E0FB
:1007D0000E94B9028CED90E00E94A20260E082E0EB
:1007E0000E94B90282EE90E00E94A2026BE082E0D9
:1007F0000E94B90289EE90E00E94A20260E083E0CC
:100800000E94B9028FEE90E00E94A2020E949C0119
:1008100080934A019FEC980F943030F60E943C027E
:1008200008950E94AF0260E080E00E94B90289EF63
:1008300090E00E94A20280914C010E94800480916D
:100840004B010E94800480914A010E94800483E54C
:100850000E9480040E94AF0260E080E00E94B90222
:1008600089E091E00E94A20260E081E00E94B9026A
:100870008AEB90E00E94A20260914B0170914C01C2
:1008800080E090E00E94D50260E082E00E94B90220
:1008900089E191E00E94A20280914A010E943C02FB
:1008A0000895CF930E948404C82F0E94AF02CB34D6
:1008B00049F462E081E00E94B90281E291E00E9485
:1008C000A20213C0C53449F462E081E00E94B9027B
:1008D0008EE291E00E94A20208C062E081E00E94E4
:1008E000B9028CE391E00E94A2022FEB87E299E02B
:1008F000215080409040E1F700C00000CF91089562
:100900005D9BFECF8CB908955F9BFECF8CB108959F
:10091000A1E21A2EAA1BBB1BFD010DC0AA1FBB1F03
:10092000EE1FFF1FA217B307E407F50720F0A21B75
:10093000B30BE40BF50B661F771F881F991F1A94E2
:1009400069F760957095809590959B01AC01BD010C
:08095000CF010895F894FFCFD8
:100958003738392F3435362A3132332D43303D2B51
:10096800202020202020202020202020202020207F
:1009780020202020004D65646963616C20526F62FD
:100988006F740044656C6976657279205379737465
:10099800656D005072657373203D00456E74657215
:1009A80020526F6F6D204E6F2E00526F6F6D203A80
:1009B800200053656C656374204D65646963696ED6
:1009C8006500312E50616E61646F6C00322E496E85
:1009D8007300332E416E746900342E5669740043D7
:1009E800686F696365203A200053656E64696E67B5
:1009F80020446174612E2E2E004D697373696F6EE9
:100A08002052756E6E696E670044727567203A20D1
:100A1800004D697373696F6E20446F6E65004D6990
:100A28007373696F6E204572726F7200556E6B6ECC
:0A0A38006F776E205265706C790034
:00000001FF
